:100000000C946F020C94B6020C94B6020C94B602D7
:100010000C94B6020C94B6020C94B6020C94B60280
:100020000C94B6020C94B6020C941F2B0C94F12B7A
:100030000C94E2250C94B6020C94B6020C94B60211
:100040000C94B6020C94B6020C94B6020C94B60250
:100050000C94B6020C9457260C94B6020C94B6027B
:100060000C94B6020C94B6020C94B6020C94B60230
:100070000C94B6020C94B6020C94B6020C94B60220
:100080000C94B6020C94B6020C94B6020C94B60210
:100090000C94B6020C94B6020C94B6020C94B60200
:1000A0000C94B6020C94B6020C94B60218122112EB
:1000B00026122B12301235123A123F1244124912F4
:1000C0004E12531258125D12621267126C127112A4
:1000D00076127B12801285122F16321637163E16B4
:1000E000431648164D16521657165C1661166616BC
:1000F00068166A166C1672167216721672167216D8
:10010000EA1BEA1B1C1C1C1C691C871C9B1D9B1DDD
:10011000921C2B1D3C1D3C1D3B1E3B1E4D1E4D1EAF
:10012000441E4D1E4D1E4D1E3B1E3B1E491E4D1EA8
:100130004D1E491E5E2C852C7D2D852C7D2DD12CB0
:10014000F42C7D2D4B2D5A2D165C1E001F00200017
:1001500021002200230024002500260027002D0076
:100160002E002A004C002B0014001A000800150075
:1001700017001C0018000C00120013002F003000A4
:1001800031004A00680004001600070009000A0058
:100190000B000D000E000F0033003400000028009B
:1001A0004D00E1001D001B000600190005001100B4
:1001B0001000360037003800E5000000520049000A
:1001C000E000E300E200000000002C00000000005E
:1001D000E6000151E4005000000051004F00165CA1
:1001E0003A003B003C003D003E003F004000410023
:1001F00042004300440045005300460069000100EE
:10020000010001000100010001001C140100131491
:1002100001000100010047004B0039611414010086
:100220000100010001000100010001000100B10016
:10023000B200000048004E00E100CA5CCB5CC65C26
:10024000C75CC85CC95CCC5CCD5CC45CC35CAE0004
:100250000000A900A8006A006B006C00000000000C
:100260000100000000006D0001006E00AC00000005
:10027000AA00AB000001010101010101010102021C
:100280000202020202020203030303030303030444
:10029000040404040404050505050506060606060F
:1002A000070707070708080808090909090A0A0AC9
:1002B0000B0B0B0C0C0C0D0D0D0E0E0E0F0F0F106B
:1002C00010111111121213131414151516161717F5
:1002D000181819191A1A1B1B1C1D1D1E1E1F202061
:1002E000212222232424252626272829292A2B2CAB
:1002F0002D2D2E2F30313232333435363738393ACE
:100300003B3C3D3E3F404142434445464748494AC5
:100310004C4D4E4F50515354555658595A5B5D5E93
:100320005F616264656668696B6C6D6F707273752E
:1003300077787A7B7D7E8082838587888A8C8E8F92
:1003400091939596989A9C9EA0A2A3A5A7A9ABADC0
:10035000AFB1B3B5B7BABCBEC0C2C4C6C9CBCDCFAE
:10036000D1D4D6D8DBDDDFE2E4E7E9EBEEF0F3F55C
:10037000F8FAFDFF100344005A0036003500520021
:100380004700420000000E0344005A00540045009C
:100390004300480000000403090409023B00020175
:1003A00000A0FA0904000001030101000921110164
:1003B00000012240000705810308000A090401002A
:1003C000010300000009211101000122B600070508
:1003D000820320000A12011001000000085A442183
:1003E0001402000102000105010902A101850209B0
:1003F00001A10005091901290815002501950875B5
:100400000181020501093009311581257F950275A9
:1004100008810609381581257F9501750881060533
:100420000C0A38021581257F950175088106C0C028
:1004300005010980A101850319012AB700150126CC
:10044000B700950175108100C0050C0901A1018557
:100450000419012AA002150126A002950175108138
:1004600000C005010906A1018505050719E029E776
:10047000150025019508750181020507190029EF6E
:100480001500250195F0750181020508190129055E
:10049000950575019102950175039101C00501094A
:1004A00006A101050719E029E71500250195087542
:1004B0000181029501750881010507190029FF15C1
:1004C0000026FF0095067508810005081901290519
:1004D000950575019102950175039101C0001124E4
:1004E0001FBECFEFDAE0DEBFCDBF04B603FE27C0EC
:1004F00080919E0690919F06A091A006B091A106C2
:100500008730904BA740B04BD1F410929E061092CA
:100510009F061092A0061092A10614BE84B7877F92
:1005200084BF0FB6F894A89580916000886180938D
:100530006000109260000FBEE0E0F8E3099513E060
:10054000A0E0B1E0E6EFFDE502C005900D92A03D10
:10055000B107D9F726E0A0EDB3E001C01D92AE3996
:10056000B207E1F70E9457280C94F92E0C94000072
:1005700081E00E940B130C94AA2580E00E940B13CB
:100580000C9490250E945E1981FF07C02FEF4FEF5A
:100590006FEF8EE190E00C94430C089581E0089594
:1005A00081E008950C94D00208950C94D4021F9316
:1005B000CF93DF9300D000D01F92CDB7DEB7498331
:1005C0005A836B833091550489819A81311114C00B
:1005D000662359F0222349F00E94F722182F682F32
:1005E00089819A810E94A02203C00E94CB22182FE9
:1005F00069817A81812F04C00E94F72269817A8102
:100600000F900F900F900F900F90DF91CF911F914F
:100610000C948F03FC01262F4081518162817381EC
:1006200084810C94D702CF93DF93EC0160E00E94A9
:100630000A03BE01DF91CF910C94D5020E94A82637
:100640000E942424811102C00E94CB240E94DD124A
:100650000C9494050C94900508950E94291E0E9404
:100660002C032FEF84E39CE0215080409040E1F781
:1006700000C000000C947D260F931F93CF93DF934F
:10068000EC0161E00E940A038C01BE010E94D202CB
:10069000882379F1BE01C8010E94EB16882349F135
:1006A000BE01C8010E943D17882319F1BE01C8018F
:1006B0000E9468188823E9F0BE01C8010E9418163C
:1006C0008823B9F08A81882369F001158CE5180721
:1006D00031F00F3D1C4531F40E94CB240AC00E942A
:1006E0002D0307C0CE01DF91CF911F910F910C9484
:1006F000CE0280E0DF91CF911F910F910895089570
:100700000C947F0381E008950C948203CF93C82F4B
:100710000E9480038C2F0E948403CF9108952BE4C4
:10072000829FC0011124FC012FE0729FE00DF11D9A
:100730001124E60FF11DEE0FFF1FE85BFE4F8591C0
:1007400094910895CF93DF930E948F030E94A40495
:10075000EC01811521E5920708F043C0811540E5C1
:10076000940708F08AC0883E910520F5803E9105E7
:1007700008F0E6C0883A910570F4853A910508F0D2
:1007800074C08130910509F4DBC008F4D7C0049728
:1007900008F0D6C0D3C08F3B910508F0CFC0C85A2F
:1007A000D0E0CC0FDD1FC75BDC4F0990D881C02D96
:1007B000D464C6C0C11580E2D80758F4C11521E041
:1007C000D20708F0BDC0CD3ED10508F4B7C0D06552
:1007D000B7C0C11540E4D40708F4B0C0DF70D06AD8
:1007E000AFC0C11585E5D807A0F4C11524E5D2072F
:1007F00008F08AC0C11543E5D40708F06FC0C115E1
:1008000082E5D80708F054C0DC2FCC27C16FD06A2E
:1008100097C0C11529E5D207A0F4C11548E5D40752
:1008200008F077C0C11586E5D80708F087C08C2F7F
:100830000E9438058F71C82FD0E0DC2FCC27D06202
:100840007FC0C1152AE5D20708F468C0CE019056D2
:100850008115904208F072C08D2F8F710E9438056B
:10086000DD27D0628F71D82B6BC0C55AD0E0C95834
:10087000DC4FC881D0E0D06463C074E09695879562
:100880007A95E1F783709C2F937021E030E002C0ED
:10089000220F331F9A95E2F73C68382BCF70C6952C
:1008A000C69580E2C89FE0011124C22BD32B48C01B
:1008B000CE018370992721E030E002C0220F331F60
:1008C0008A95E2F78C2F8695869540E2849FC00139
:1008D0001124E901C82BD92BDC6832C0CE0183700A
:1008E000992721E030E002C0220F331F8A95E2F7FA
:1008F0008C2F8695869540E2849FC0011124E901E2
:10090000C82BD92BDA681CC0DC2FCC27C46FD06A67
:1009100017C0DC2FCC27C06FD06A12C08C2F8F700D
:100920000E94380594E0D695C7959A95E1F7CF7067
:10093000D0E0DC2FCC27D069C82B02C0C0E0D0E0CB
:10094000CE01DF91CF9108958238910569F1B0F41D
:100950008133910509F46DC048F48932910509F499
:1009600063C08A32910509F469C008958533910501
:1009700009F455C089339105B9F00895833E910576
:1009800069F138F4803E9105B1F0823E910509F19C
:100990000895863E9105A9F1873E9105B9F1843EFF
:1009A000910509F064C023C020918F0620FD4FC03F
:1009B00021FD4DC0089580918F0680FD44C0809137
:1009C000900680FF44C080918F0684FD42C083EE74
:1009D0004DC080918F0682FF38C0F5CF80918F0681
:1009E00082FD33C08091900680FD31C0ECCF8091B4
:1009F000900681FF32C080918F0684FD2AC087EE69
:100A000035C080918F0683FF26C0F5CF80918F0679
:100A100083FD21C08091900681FD1FC0ECCF8091A5
:100A20008F0685FD1CC01DC080918F0685FD19C0F5
:100A300016C080918F0686FD16C017C080918F0664
:100A400086FD13C010C089E311C082EE0FC080EE96
:100A50000DC080E00BC086EE09C084EE07C089E2BD
:100A600005C085E303C08AE201C081E390E00895F8
:100A700090918F0692FF0DC0282F2871283019F40D
:100A8000877F846006C0282F2471243011F48B7F67
:100A9000886093FF0DC0282F2871283119F4877EB4
:100AA000846106C0282F2471243111F48B7E886163
:100AB0002091900620FF0DC0382F3871383019F47E
:100AC000877F816006C0382F3171313011F48E7FFD
:100AD000886021FF0DC0282F2871283119F4877EE6
:100AE000816106C0282F2171213111F48E7E886129
:100AF00094FD877E0895E82FF0E0EE0FFF1FE55E7E
:100B0000FA4F808191810895089580EA8A95F1F7DE
:100B1000089500C008950C94850508950C948D05E2
:100B20000C948E050C948D050C949205F894E82F86
:100B3000E295EF70F0E031A1282F2F7081E090E076
:100B400001C0880F2A95EAF7982F9095932391A3D7
:100B500092A1892B82A3789408950F931F93CF932A
:100B6000DF9380EF0E94960581EF0E94960584EF47
:100B70000E94960586EC0E94960586E60E949605E0
:100B8000CAE7D3E009E813E089910E9496050C17A3
:100B90001D07D1F7E1E1F5E0ABE1B5E0119211926B
:100BA0001D921D9285E0EB31F807C1F785E00E94A8
:100BB0007206DF91CF911F910F910C941E037F92CB
:100BC0008F929F92AF92BF92CF92DF92EF92FF925D
:100BD0000F931F93CF93DF9301E115E089E8E82E8F
:100BE00083E0F82EC0E0D0E0712CAA24A394B12CAD
:100BF0004701F7018081F894E82FE295EF70F0E06B
:100C000021A18F70A50102C0440F551F8A95E2F7FC
:100C1000CA01922F982B91A392A18095892382A338
:100C200078940E948905EAE7F3E020E030E0C12CE7
:100C3000D12C4191A42FA295AF70B0E090968C91E9
:100C400090E04F7002C0959587954A95E2F780FD38
:100C500008C0C501022E02C0880F991F0A94E2F74E
:100C600002C080E090E0C82AD92A2F5F3F4F2F3082
:100C70003105F9F65FEFE51AF50AF40180810E946B
:100C80009605C430D10511F00E948B05F8018081D2
:100C90009181C816D90621F0D182C08281E001C0BD
:100CA00080E0782A21960E5F1F4FC530D10509F0EC
:100CB0009FCF272D45E06BE175E081E195E00E9433
:100CC00073060E942A03872DDF91CF911F910F9108
:100CD000FF90EF90DF90CF90BF90AF909F908F905C
:100CE0007F9008950895FF920F931F93CF93DF9302
:100CF000F82E092F162FD72FC42F222349F081E079
:100D00008093D4030E9414269093D3038093D2033C
:100D10008091D4038823D9F08091D2039091D3039A
:100D20000E942C26049798F0EF2DF02FA12FBD2FB5
:100D300080E090E04C2F50E08417950734F4219127
:100D400031912D933D930196F7CF1092D403DF910B
:100D5000CF911F910F91FF9008958091DB0380FF49
:100D60000BC06091200285E0689FB0011124759549
:100D70006795759567952BC081FF09C0609120022A
:100D800085E0689FB00111247595679520C082FFAA
:100D900007C06091200285E0689FB001112417C050
:100DA0009091DA039923D1F060911F02961788F78A
:100DB0002091200285E0289F90011124929FA0019C
:100DC000939F500D112470E0CA010E94C52D603818
:100DD000710540F46115710519F406C065E070E015
:100DE000862F08958FE7089581E008958091DB03B1
:100DF00080FF08C060911C0270E07595679575953D
:100E0000679521C081FF06C060911C0270E0759556
:100E1000679519C082FF04C060911C0270E010C089
:100E20009091D903992399F060911B029617A0F72E
:100E300080911C02899FC001112470E00E94C52D81
:100E40006038710540F46115710519F406C061E060
:100E500070E0862F08958FE7089581E008958D3E14
:100E600021F40E94AD06819504C08E3E29F40E94B3
:100E7000AD068093DF0308958F3E21F40E94AD06F6
:100E8000819504C0803F29F40E94AD068093DE0363
:100E90000895893F19F40E94F60605C08A3F31F48F
:100EA0000E94F60681958093E00308958B3F21F41C
:100EB0000E94F606819504C08C3F29F40E94F60634
:100EC0008093E10308959FE0980F983078F421E033
:100ED00030E0A90102C0440F551F9A95E2F7CA01FC
:100EE0009091DD03892B8093DD0308958D3F21F4DC
:100EF0008091DB0381600BC08E3F21F48091DB0386
:100F0000826005C08F3F29F48091DB038460809369
:100F1000DB0308958D3E39F49091DF0397FF35C0D0
:100F20001092DF0359C08E3E29F49091DF03191609
:100F3000BCF32BC09091DE038F3E29F497FF25C0B0
:100F40001092DE0349C0803F19F41916CCF31DC07E
:100F50009091E003893F29F41916BCF41092E00344
:100F60003BC08A3F19F497FF10C0F8CF8B3F39F48C
:100F70009091E10397FF09C01092E1032DC08C3FCF
:100F800021F49091E1031916BCF39FE0980F98307B
:100F900080F421E030E0A90102C0440F551F9A956A
:100FA000E2F7CA0180959091DD0389238093DD03E8
:100FB00013C08D3F21F48091DB038E7F0BC08E3FE9
:100FC00021F48091DB038D7F05C08F3F29F4809150
:100FD000DB038B7F8093DB038091DE03811106C0EE
:100FE0008091DF03811102C01092DA038091E00347
:100FF000811106C08091E103811102C01092D903D2
:1010000008950E9414262091DE03211104C020912E
:10101000DF03222321F09093D8038093D7032091FC
:10102000E003211104C02091E103222321F09093D9
:10103000D6038093D5038CED93E00C948519EF9241
:10104000FF920F931F93CF93DF9300D000D000D077
:10105000CDB7DEB786E0ECEDF3E0DE01119601904E
:101060000D928A95E1F7E090DE03F090DF030091A6
:10107000E0031091E1031092DE031092DF0310925F
:10108000E0031092E103E11003C0FF2009F45DC00A
:101090008091D7039091D8030E942C26AC019091A7
:1010A000DA03992339F02091210230E02417350723
:1010B00058F04BC0209122028AE0289F9001112411
:1010C0002417350718F041C09F3F19F09F5F909398
:1010D000DA03EE2061F00E94AD061E1414F09FEFBB
:1010E00001C091E0989F902D11249093DE03FF2082
:1010F00061F00E94AD061F1414F09FEF01C091E053
:10110000989F902D11249093DF033091DE033323B9
:10111000E1F02091DF032223C1F045EB3403C0014D
:101120001124992319F09093DE0303C081E080938A
:10113000DE0335EB2303C0011124992319F09093AA
:10114000DF0303C081E08093DF03011103C011239B
:1011500009F45DC08091D5039091D6030E942C269E
:10116000AC019091D903992339F020911D0230E010
:101170002417350758F04BC020911E028AE0289FA3
:10118000900111242417350718F041C09F3F19F032
:101190009F5F9093D903002361F00E94F60610161A
:1011A00014F09FEF01C091E0989F902D112490932F
:1011B000E003112361F00E94F606111614F09FEF70
:1011C00001C091E0989F902D11249093E1033091FC
:1011D000E0033323E1F02091E1032223C1F045EB4A
:1011E0003403C0011124992319F09093E00303C044
:1011F00081E08093E00335EB2303C00111249923A0
:1012000019F09093E10303C081E08093E1038091A2
:10121000DE0381110BC08091DF03811107C0809133
:10122000E003811103C08091E10381110E94010854
:10123000EB82FC820D831E8386E0FE013196ACEDCD
:10124000B3E001900D928A95E1F726960FB6F894D7
:10125000DEBF0FBECDBFDF91CF911F910F91FF90E9
:10126000EF900895ECEDF3E086E0DF011D928A95A2
:10127000E9F71092DA031092D9031092DB03089574
:10128000EF92FF920F931F93CF93DF938B01682F01
:1012900011110AC0442329F0E82FF0E0EC58FD4F6B
:1012A0006491762F862F75C0212F30E0E82FF0E073
:1012B000442321F0EC58FD4FE491F0E046E0049F18
:1012C000C0011124CFEFD0E0BE010E94B12D4BEA46
:1012D0004603C001479F900D1124800F911D800F80
:1012E000911D982F990F890FAE01421B530B4E9FF2
:1012F000D0014F9FB00D5E9FB00D11249B2F189F02
:10130000A0011124452F55278E01041B150B0E9F9C
:10131000A0010F9F500D1E9F500D11247E01E81A51
:10132000F108E29E8001E39E100DF29E100D112443
:10133000212F3327C21BD30BCE9F9001CF9F300D9F
:10134000DE9F300D112462307105A9F048F461155B
:10135000710569F061307105C9F48B2F752F0DC0CF
:101360006430710581F058F06630710579F47E2F94
:101370008B2F932F0DC0832F7B2F9E2F09C08E2F75
:101380007B2F952F05C08E2F732F02C07E2F852FA8
:10139000692FDF91CF911F910F91FF90EF900895EA
:1013A00041E00E944009089520E030E0869F212D11
:1013B000969F200D311D1124C9010895BC01823072
:1013C000910508F40895613E8EE1780748F49B0189
:1013D00095E0369527959A95E1F748E0420F01C0D0
:1013E0004FEF91E0242F30E0290F311D35952795DF
:1013F000229FF001239FF00DF00D11246E177F073F
:1014000018F44FEF420F04C02F3F39F091E0920FD4
:10141000491740F78FEF890F08958FEF0895482FF0
:10142000982F46FD9095E92FEF739F7046FD9F5FC3
:10143000E295EF70EE0FF0E0E257FC4F2181299F1B
:10144000802D212D112482958F702295207F822B53
:101450003081982F930F892F47FD819580580895EB
:10146000E42FF0E0EE0FFF1FE15BFE4F408134EE12
:10147000439F412D1124E82FF0E050E0445E5F4F80
:10148000DA01A21BB1099D01B7FF03C03195219577
:10149000310993E0220F331F9A95E1F7AF01421B08
:1014A000530B9A0157FF02C020E030E0582F259FD0
:1014B000212D1124822F0895622F0895E42FF0E04A
:1014C000EE0FFF1FE15BFE4F6081621B0895E42F6A
:1014D000F0E0EE0FFF1FE05BFE4F6081621B08959E
:1014E000A22F50E0FA01EE0FFF1FE05BFE4F90814C
:1014F000905297FD9195440F551FFA01E15BFE4F05
:101500003081232F30E02A1B3109290F311D97FD2F
:101510003A95620F0895EF920F931F9393E0099FFE
:1015200080011124159507956E2D600F1F910F9165
:10153000EF9008950F93CF93DF93D72FC82F47FDD8
:101540004195E8E3F0E0CF01841B910947FD9395B5
:10155000889FB001899F700D700D1124229FC001DA
:10156000239F900D900D1124860F971F0E94DE0976
:10157000682F660F860F682F600F7D2F8C2FDF91ED
:10158000CF910F9108950F931F93522F10E0F80100
:10159000EE0FFF1FE05BFE4FE081F0E0B0979F0190
:1015A0005203D001539FB00D1124000F111FF801F9
:1015B000E15BFE4F008110E00057110940039001EC
:1015C000419F300D11242A0F3B1F37FF02C02158C5
:1015D0003F4F220F232F221F330B620F1F910F91BA
:1015E00008950F931F93522F10E0F801EE0FFF1F85
:1015F000E05BFE4FE081F0E0B097EE0FFF1F9F0130
:101600005203D001539FB00D1124000F111FF80198
:10161000E15BFE4F008110E000571109000F111F20
:1016200040039001419F300D11242A0F3B1F37FFCB
:1016300002C021583F4F220F232F221F330B620F6E
:101640001F910F9108950F931F9310E0F801EE0F73
:10165000FF1FE15BFE4F9081905797FD9195000F22
:10166000111FF801E05BFE4FE081F0E0B097DF0171
:10167000AA0FBB1F8D010E0F1F1F2003D001219F3A
:10168000B00D1124E8E3F0E0E91BF10997FDF395B3
:101690009F01220F331F89010E0F1F1F400390016E
:1016A000419F300D11242A0F3B1F37FF02C02158E4
:1016B0003F4F220F232F221F330B620F1F910F91D9
:1016C000089522E8241B08F420E0620F0895FC012D
:1016D0009B01009721F477FF2BC080E80895AC01AF
:1016E00097FF04C044275527481B590BB901640FC5
:1016F000751F37FD0CC0241B350BC901A5E0880FF1
:10170000991FAA95E1F70E94C52D80E20CC0CB017C
:1017100065E0880F991F6A95E1F7BA01621B730BA8
:101720000E94C52D80E6861BF7FF03C081950895B2
:1017300080E00895FF920F931F93CF93DF93F62ECF
:10174000D72F182FC901C12FC01BBA010E94670BE8
:10175000982F990F890FC81B2C2F219F212D112401
:10176000822F6F2D7D2FDF91CF911F910F91FF90D1
:101770000895EF920F931F93CF93DF93D62FC72F28
:10178000182FC9010E19010FBA010E94670B081B1F
:10179000202F219F212D1124822F6D2F7C2FDF914F
:1017A000CF911F910F91EF9008950F93CF93DF93F7
:1017B000D72FC82FC901BA010E94670B682F600F8D
:1017C0007D2F8C2FDF91CF910F910895EF920F9382
:1017D000CF93DF93D72FC82FC9010E19BA010E94EA
:1017E000670B602F681B7D2F8C2FDF91CF910F919E
:1017F000EF9008950E94D009089545E050E06CE113
:1018000070E085E295E00C94852E45E050E06CE1B7
:1018100070E085E295E00C94A32EE5E2F5E081E22C
:1018200080838091360290913702A09138028183A3
:101830009283A3838FE784830C94050C80E0089542
:101840000F931F93CF93DF93C82FD62F8A010E9447
:101850001E0C9FE0C99FF0011124EC5FFE4FED0FBD
:10186000F11D90819F3F29F0F801E80FF11D908351
:101870008F5FDF91CF911F910F910895E0919C03AD
:10188000F0919D030994E0919803F09199030994D4
:101890004F925F926F927F928F929F92AF92BF9280
:1018A000CF92DF92EF920F931F93CF93DF932C0190
:1018B0003B01FC01C081CC0FCC0FD4E0DC0FD53450
:1018C00008F0D4E460912905669580912A059091ED
:1018D0002B050E94D409182FCD1708F044C08C2E78
:1018E000912CF401E952FE4F9081F201818189230C
:1018F000C1F1F401EE0FFF1FE15BFE4FC080D12C60
:10190000F0E7CF1AD108F401EE0FFF1FE05BFE4FA6
:10191000A080B12C80E2A81AB108CC9C9001CD9C8B
:10192000300D300D1124AA9CC001AB9C900D900D80
:101930001124820F931F0E94DE09082F6091260553
:101940007091270580912805E12E9501A601F301EC
:1019500009950E94FA0B462F282F672FC4010E9479
:10196000430CCF5FB9CF81E0D43408F080E0DF9141
:10197000CF911F910F91EF90DF90CF90BF90AF90DC
:101980009F908F907F906F905F904F90089569EB3C
:101990007BE00C94480C6BE87AE00C94480C66EE03
:1019A0007BE00C94480CAF92BF92CF92DF92EF9203
:1019B000FF920F931F93CF93DF936C015B01FC01A8
:1019C000C081CC0FCC0FD4E0DC0FD53408F0D4E4C8
:1019D00060912905669580912A0590912B050E94BA
:1019E000D409182FCD1778F5EC2EF12CF701E95218
:1019F000FE4F9081F6018181892319F1F701EE0FE5
:101A0000FF1FE05BFE4F208130E020523109F701DB
:101A1000EE0FFF1FE15BFE4F408150E04057510940
:101A2000609126057091270580912805012FF50109
:101A300009950E94FA0B462F282F672FC7010E9495
:101A4000430CCF5FCFCF81E0D43408F080E0DF914A
:101A5000CF911F910F91FF90EF90DF90CF90BF90AB
:101A6000AF9008956AE97BE00C94D30C6AE97AE0C0
:101A70000C94D30C65ED7BE00C94D30CBF92CF9209
:101A8000DF92EF92FF920F931F93CF93DF938C011E
:101A90007B01FC01C081CC0FCC0FD4E0DC0FD5342E
:101AA00008F0D4E4609129056695669580912A0531
:101AB00090912B050E94D409B82ECD17F0F4CC2EAE
:101AC000D12CF601E952FE4F9081F80181818923E2
:101AD00091F06091260570912705809128052B2DA6
:101AE0004C2FF70109950E94FA0B462F282F672FDC
:101AF000C6010E94430CCF5FE0CF81E0D43408F0F0
:101B000080E0DF91CF911F910F91FF90EF90DF90D8
:101B1000CF90BF90089560E37AE00C943E0D6CE5A1
:101B20007AE00C943E0D6EE57AE00C943E0D67E68B
:101B30007AE00C943E0D60E77AE00C943E0D7F92C3
:101B40008F929F92AF92BF92CF92DF92EF92FF92CD
:101B50000F931F93CF93DF936C015B01FC01C08156
:101B6000CC0FCC0FD4E0DC0FD53408F0D4E4609176
:101B700029056695669580912A0590912B050E940E
:101B8000D409182F80E4810F0E940F0A90E8F92EE3
:101B9000F80E812F0E940F0A20E8722E780ECD17C2
:101BA00000F58C2E912CF401E952FE4F9081F60144
:101BB00081818923A1F0609126057091270580918C
:101BC0002805E12E0C2F272D4F2DF50109950E9498
:101BD000FA0B462F282F672FC4010E94430CCF5FBA
:101BE000DECF81E0D43408F080E0DF91CF911F9107
:101BF0000F91FF90EF90DF90CF90BF90AF909F90AC
:101C00008F907F90089563EC7AE00C949F0D61EFC4
:101C10007AE00C949F0D63E27BE00C949F0DAF92F1
:101C2000BF92CF92DF92EF92FF920F931F93CF93C9
:101C3000DF937C015B01FC01C081CC0FCC0FD4E0B1
:101C4000DC0FD53408F0D4E42091290530E040E0E1
:101C500050E06FEF7FEF80E090E00E94D92D890186
:101C6000CD17E8F5CC2ED12CF601E952FE4F90812C
:101C7000F7018181892389F190912E05915097FD7B
:101C800015C0292F092E000C330BF901E25DFA4F24
:101C90008189C813F3CF220F331FF901E25DFA4F98
:101CA000218D328D2017310748F701C098016091CE
:101CB0002905C9010E94D409AC01609126057091E3
:101CC000270580912805F50109950E94FA0B462FFA
:101CD000282F672FC6010E94430CCF5FC1CF81E040
:101CE000D43408F080E0DF91CF911F910F91FF90E5
:101CF000EF90DF90CF90BF90AF90089561E67BE0CA
:101D00000C940F0EDF92EF92FF920F931F93CF93DD
:101D1000DF938C01DC01CC91CC0FCC0FD4E0DC0F35
:101D2000D53408F0D4E460912605709127058091A0
:101D300028050E94FA0BF62EE72ED82ECD1798F420
:101D4000EC2FF0E0DF01A952BE4F8C91D801119623
:101D50009C91982331F02D2D4F2D6E2DCF010E9497
:101D6000430CCF5FEBCF81E0D43408F080E0DF910B
:101D7000CF911F910F91FF90EF90DF900895AF9258
:101D8000BF92CF92DF92EF92FF920F931F93CF9368
:101D9000DF938C01FC01C081CC0FCC0FD4E0DC0FB1
:101DA000D53408F0D4E4E0902705F0902805D090D1
:101DB00026056D2D7E2D8F2D0E94FA0BC62EB72E77
:101DC000A82E609129056D0D7E2D8F2D0E94FA0B96
:101DD000F62EE72ED82ECD17B8F48C2F90E0FC010C
:101DE000E952FE4F3081F8012181232359F030FF61
:101DF00004C02D2D4F2D6E2D03C02A2D4C2D6B2D83
:101E00000E94430CCF5FE7CF81E0D43408F080E03C
:101E1000DF91CF911F910F91FF90EF90DF90CF90C6
:101E2000BF90AF900895BF92CF92DF92EF92FF9252
:101E30000F931F93CF93DF937C01FC01C081CC0FE4
:101E4000CC0FD4E0DC0FD53408F0D4E4C0902705E3
:101E5000B09028052091290530E4D32E3D2D329FE6
:101E6000312D1124D32ECD1738F50C2F10E0F801A9
:101E7000E952FE4F9081F70181818923D9F0F80161
:101E8000EE0FFF1FE15BFE4F6081D69EB001112473
:101E900095E0759567959A95E1F780912605680F0D
:101EA0007C2D8B2D0E94FA0B462F282F672FC801FF
:101EB0000E94430CCF5FD7CF81E0D43408F080E09C
:101EC000DF91CF911F910F91FF90EF90DF90CF9016
:101ED000BF900895DF92EF92FF920F931F93CF93DD
:101EE000DF938C01DC01CC91CC0FCC0FD4E0DC0F64
:101EF000D53408F0D4E4E0902605F0902705D09082
:101F000028056091290566956695669580912A0554
:101F100090912B050E94D4090E940F0A805887FDDA
:101F20008195880F282F3D2D239F212D1124822F4D
:101F3000B7010E94FA0BF62EE72ED82ECD1798F493
:101F4000EC2FF0E0DF01A952BE4F8C91D801119621
:101F50009C91982331F02D2D4F2D6E2DCF010E9495
:101F6000430CCF5FEBCF81E0D43408F080E0DF9109
:101F7000CF911F910F91FF90EF90DF900895DF9226
:101F8000EF92FF920F931F93CF93DF93EC01FC012D
:101F9000E952FE4F9081692381F1D090270500918D
:101FA000280510912605E12EF12C0E946C2E282F79
:101FB000C7018C549F4F68E671E00E94C52D8E19B1
:101FC0009F0997FD0396959587959595879523701D
:101FD000612F289F600D11247D2D802F0E94FA0B08
:101FE000462F282F672FCE01DF91CF911F910F91A0
:101FF000FF90EF90DF900C94430CDF91CF911F91F5
:102000000F91FF90EF90DF900895CF92DF92FF92B3
:102010000F931F93CF93DF938C01FC01C281C111F9
:102020001DC06091290520E1620F08F46FEF8091D7
:102030002A0590912B050E94D4096AE070E00E9465
:10204000B12D892B49F50E946C2E64E470E00E944A
:10205000C52DF80161810E94BF0F1EC0FC01C08127
:10206000CC0FCC0F94E0F92EFC0EF4E4FF1510F425
:1020700084E4F82ED0E0CF2CD12CCC15DD053CF437
:10208000F8016181CE010E94BF0F2196F6CFC1E019
:10209000F3E4FF1508F4C0E08C2FDF91CF911F917E
:1020A0000F91FF90DF90CF9008951F93CF93DF9310
:1020B000FC01E952FE4F20816223A9F0EC010E944D
:1020C0006C2E182F0E946C2E612F782F809128057E
:1020D0000E94FA0B462F282F672FCE01DF91CF9158
:1020E0001F910C94430CDF91CF911F910895CF92D3
:1020F000DF92FF920F931F93CF93DF938C01FC012C
:10210000C281C1111DC06091290520E1620F08F450
:102110006FEF80912A0590912B050E94D40965E00C
:1021200070E00E94B12D892B49F50E946C2E64E469
:1021300070E00E94C52DF80161810E9455101EC0FB
:10214000FC01C081CC0FCC0F94E0F92EFC0EF4E41E
:10215000FF1510F484E4F82ED0E0CF2CD12CCC1550
:10216000DD053CF4F8016181CE010E9455102196F5
:10217000F6CFC1E0F3E4FF1508F4C0E08C2FDF9147
:10218000CF911F910F91FF90DF90CF900895E09134
:102190009A03F0919B030994CF92DF92EF92FF9202
:1021A0000F931F93CF93DF93CDB7DEB728970FB66A
:1021B000F894DEBF0FBECDBF182F062FF42E0E945D
:1021C000D919882309F46DC0FF2049F0AE014F5F93
:1021D0005F4F602F812F0E94200CF82E01C0F12C40
:1021E000E090E2030F2D10E0C8018E0D911D0997BC
:1021F00064F188E090E06C01C01AD10AB8016D5119
:102200007C4FA60183EE93E00E947C2EB8016551BD
:102210007C4FA6018BEE93E00E947C2EA601440F1A
:10222000551FB801660F771F65507C4F8BEF93E009
:102230000E947C2EB8016D507C4FA60183EF93E085
:102240000E947C2EEA94E092E2031091E203DE0108
:10225000119640E0842F810FF41609F190E05D9112
:10226000252F30E0BC016E517C4FF901EE0FFF1FAE
:10227000E15BFE4F0081FB010183220F331FF90157
:10228000E05BFE4F2081FB012187518B880F991F56
:10229000FC01EE51FC4F128E118E4F5FDBCF80930D
:1022A000E20328960FB6F894DEBF0FBECDBFDF91D4
:1022B000CF911F910F91FF90EF90DF90CF900895F5
:1022C00008950C9460110E9461110C94C20208954B
:1022D0000C946711CF93DF93FC01C081CC0FCC0F1E
:1022E000C450D4E0DC0FD53408F0D4E46D2F8C2F2B
:1022F0000E9468116D2F8C2FDF91CF910C94671184
:102300004F925F926F927F928F929F92AF92BF9205
:10231000CF92DF92EF92FF92CF9360910B04709176
:102320000C0480910D0490910E040E943B266B01D9
:102330007C010E9420264B015C0160930B0470938A
:102340000C0480930D0490930E04A091E203E2EE3E
:10235000F3E08A2F90E04FEF5FEF60E070E04C1900
:102360005D096E097F09A91799F0218D328D290128
:10237000612C712C441555056605770510F48150C4
:1023800004C02C0D3D1D328F218F9F5F3296EBCF05
:102390008093E20380910F04811108C0C09125054C
:1023A0008C2F837019F0C695C69501C0C0E080914E
:1023B00023028130E9F038F0823009F4CFC0833055
:1023C00009F4DCC0ECC01092240280922A0590929D
:1023D0002B05A0922C05B0922D0589E2E2EEF3E0E8
:1023E000AEE2B5E001900D928A95E1F781E0C0C0C0
:1023F00080912702C8130DC020912505237030E07D
:102400004091280250E081E02417350719F480E05C
:1024100001C081E08170809326024C2F50E046314C
:10242000510508F077C0FA01EA5AFF4F0C94F82DD5
:10243000882309F46FC040E060E080E00E94C7108C
:1024400069C084E292E00E94820E65C084E292E05C
:102450000E94BF0E60C084E292E00E94130F5BC036
:1024600084E292E00E946A0F56C084E292E00E94E9
:102470008B0D51C084E292E00E94320D4CC084E288
:1024800092E00E94C70C47C084E292E00E948F0D48
:1024900042C084E292E00E94930D3DC084E292E04B
:1024A0000E94970D38C084E292E00E949B0D33C0D9
:1024B00084E292E00E94CB0C2EC084E292E00E9463
:1024C000360D29C084E292E00E943A0D24C084E2D5
:1024D00092E00E94CF0C1FC084E292E00E94030EA3
:1024E0001AC084E292E00E94070E15C084E292E0D6
:1024F0000E940B0E10C084E292E00E9405100BC0F7
:1025000084E292E00E94771006C084E292E00E948A
:102510007E0E01C080E0909124029F5F9093240280
:10252000811129C082E080932302809126028111CB
:1025300022C0CC23E1F00E94631184E292E0CF91AB
:10254000FF90EF90DF90CF90BF90AF909F908F90D3
:102550007F906F905F904F900C946A11C093270208
:10256000809125058370809328020E943E0C83E0B1
:102570008093230214C0CC2391F0DDCF60912A0513
:1025800070912B0580912C0590912D050E943B2682
:102590006A3171058105910510F010922302CF91E7
:1025A000FF90EF90DF90CF90BF90AF909F908F9073
:1025B0007F906F905F904F900895E0919603F09117
:1025C0009703099510922E05E7E4F5E08FEF9FEF52
:1025D0008193919325E0E735F207D1F71092E2035A
:1025E000EBEFF3E08FEF9FEF8193919324E0EB30DB
:1025F000F207D1F70E942424811104C00E94CB2449
:102600000E940D0C0E94FD0B809125058C7F11F41A
:102610000C940D0C0895CF93C82F882329F040E027
:1026200060E080E00E94C710C0930F04CF9108952E
:102630002091250591E09227909325051092230281
:1026400081110C94050C089581E00C94181390915D
:102650002505937091F0811102C0946007C0863106
:1026600010F0946503C0880F880F982B9093250570
:102670001092230261110C94050C089561E00C94F2
:102680002713682F90912505969596959F5F963113
:1026900010F4892F01C081E00C94271381E00C9481
:1026A0004113682F9091250596959695915011F0BC
:1026B000892F01C085E10C94271381E00C945113FC
:1026C00090912505937061F080932605609327050E
:1026D000493C08F048EC4093280521110C94050C66
:1026E0000895A5E2B5E01196EC911197F0E0282F3E
:1026F00013964C91139712966C91CF0108960C94F7
:10270000601381E00C947113A5E2B5E01196EC9191
:102710001197F0E0282F13964C91139712966C9115
:10272000CF0108970C94601381E00C948413E5E2C8
:10273000F5E0628120E1620F08F46FEF9181282FAC
:102740004381892F90E00C94601381E00C949713DF
:10275000E5E2F5E0628120E1621B08F460E091812E
:10276000282F4381892F90E00C94601381E00C9412
:10277000A813E5E2F5E0438120E1420F08F44FEFB2
:102780009181282F6281892F90E00C94601381E061
:102790000C94B913E5E2F5E0438120E1421B08F413
:1027A00040E09181282F6281892F90E00C94601382
:1027B00081E00C94CA132091290530E1230F08F41D
:1027C0002FEF2093290581110C94050C089581E0C9
:1027D0000C94DB132091290530E1231B08F420E041
:1027E0002093290581110C94050C089581E00C9427
:1027F000EA1360E084E70E94C81561E087E70C9463
:10280000C815CF930E94991884E70E944E1487E759
:102810000E944E14C0E021E041E061E08C2F0E9454
:10282000E414CF5FC434B9F760E084E70E94E01598
:1028300061E087E7CF910C94E015E7E7F6E060836D
:10284000418324E630E042E050E0BF01880F0C9461
:1028500026190F931F93CF93DF93082F000FEB01DF
:1028600014E210937706E8E7F6E0DE018D9181939C
:1028700086E0E838F807D1F724E630E041E150E09F
:1028800067E776E0802F0E942619105F6096143B60
:1028900041F7DF91CF911F910F910895CF93DF936F
:1028A000C82F4BE06DEF0E941D1440E06AE08C2FB2
:1028B0000E941D148FE39CE90197F1F700C000000E
:1028C00040E060E08C2F0E941D1440E061E08C2FFE
:1028D0000E941D1440E066E08C2F0E941D1440E011
:1028E0006DEF8C2F0E941D14D0E040E06D2F8C2FD7
:1028F0000E941D14DF5FD231C1F740E06D2F8C2F95
:102900000E941D14DF5FD432C1F740E06D2F8C2F81
:102910000E941D14DF5FD43BC1F74BE06DEF8C2F9D
:102920000E941D1441E06AE08C2F0E941D1440E0BB
:102930006DEF8C2FDF91CF910C941D148434910591
:1029400040F5880F991F880F991FFC01E75CFD4F28
:1029500052813381808183707181A82FB0E0E0E9DA
:102960008E9FC0011124895A9A4FFC01E70FF11D77
:10297000B4976083FC01E50FF11DB4974083830F8A
:10298000911DFC01B4972083FD01EA5CFB4F81E0BF
:1029900080830895FF920F931F93CF93DF93182F97
:1029A000062FF42EC0E0D0E02F2D402F612FCE0156
:1029B0000E949E142196C434D105B1F7DF91CF91C6
:1029C0001F910F91FF9008957F928F929F92AF92E7
:1029D000BF92CF92DF92EF92FF920F931F93CF930C
:1029E000DF93362F54E0859FC0011124FC01E75C82
:1029F000FD4F60816370762E618170E0CB0184971A
:102A00008C0197FF02C0095F1F4FA3E01595079542
:102A1000AA95E1F7628170E07B0154E2E51AF108C2
:102A2000E701F7FC279673E0D595C7957A95E1F70E
:102A3000638170E04B0154E2851A9108F40197FC20
:102A4000379653E0F595E7955A95E1F768E0A62E9D
:102A5000B12CB5010E94C52D6C01C701B5010E94C2
:102A6000C52D7C01C401B5010E94C52D1127672D1C
:102A700070E0DD24332399F032E1369FD001379F97
:102A8000B00D1124AE5EBB4FA00FB11F01E010E0EE
:102A900001C0000FCA94EAF73C91032B13C032E146
:102AA000369FD001379FB00D1124AE5EBB4FA00FF3
:102AB000B11F01E010E001C0000FCA94EAF70095D1
:102AC0003C9103230C93DD27FF2432E1442391F052
:102AD000369FA001379F500D11244E5E5B4FC40FEF
:102AE000D51F41E050E001C0440FEA94EAF7388175
:102AF000432B12C0369FA001379F500D11244E5E0C
:102B00005B4FC40FD51F41E050E001C0440FEA9471
:102B1000EAF74095388143234883AF015527992729
:102B200092E1969FF001979FF00D1124EE5EFB4F0E
:102B3000E40FF51F222361F021E030E0A90102C07B
:102B4000440F551F8A95E2F7CA019081892B0CC06A
:102B500021E030E0A90102C0440F551F8A95E2F739
:102B6000CA018095908189238083FB01E05FFB4F40
:102B700081E08083DF91CF911F910F91FF90EF90C3
:102B8000DF90CF90BF90AF909F908F907F900895EF
:102B9000CF93DF93262F30E0E901CA5CDB4F9881A9
:102BA000992351F090E9929FB001939F700D1124E9
:102BB000695A7A4F0E9429141882DF91CF910895A3
:102BC000DF92EF92FF920F931F93CF93DF93262F05
:102BD00030E0A901405F5B4F7A01FA0190819111C9
:102BE0000AC0F7011082DF91CF911F910F91FF90E2
:102BF000EF90DF900895D82EF2E16F9FE00111244D
:102C000000E010E0F801EC0FFD1FEE5EFB4F40818D
:102C1000602F8D2D0E941D140F5F1F4F0231110573
:102C200089F7DFCF882311F0FA0101C0FB01099475
:102C30000F931F93CF93FB01C281CC2309F450C0A3
:102C40008C010E9478238272F801E35CFC45E43138
:102C5000F10508F048C0E459FF4F0C94F82D0E948C
:102C6000241340C04DE553E16EE473E104C04EE42B
:102C700053E16DE573E10E94121634C044E953E15B
:102C800061E873E1F8CF41E853E164E973E1F3CF20
:102C900046EB53E165EA73E1EECF45EA53E166EBBB
:102CA00073E1E9CF48ED53E167EC73E1E4CF47EC22
:102CB00053E168ED73E1DFCF46EF53E167EE73E177
:102CC000DACF47EE53E166EF73E1D5CF81E005C07F
:102CD00084E003C089E001C08EE00E943E1302C080
:102CE000C1E001C0C0E08C2FCF911F910F910895DA
:102CF0000F931F93CF93DF93C42FD22FFC018281B8
:102D00008823C9F040933A040E9414269093390412
:102D10008093380480E28C0F883008F057C0C77069
:102D200081E001C0880FCA95EAF7DF91CF911F912A
:102D30000F910C94A51B80913A04481330C08091E8
:102D40003804909139040E942C26883C910538F56E
:102D500010E21D0FCD17B9F080E28C0F883040F4DF
:102D6000C77081E001C0880FCA95EAF70E94AC1BCA
:102D7000183028F581E09D2F977001C0880F9A9533
:102D8000EAF70E94A51B802F0E949C1B1830F0F4CC
:102D9000D77081E001C0880FDA95EAF70AC080E2B7
:102DA0008C0F883098F4C77081E001C0880FCA95F5
:102DB000EAF7DF91CF911F910F910C94AC1B802FFC
:102DC000DF91CF911F910F910C949C1BDF91CF91BC
:102DD0001F910F9108950F939C01CB01243F4CE567
:102DE000340731F188F4293DFCE53F07D9F02A3D4D
:102DF0004CE5340779F1283D3C45A9F506E221EE82
:102E000041EE68ED7CE52BC0263FFCE53F07E1F095
:102E1000A8F0273F3C4539F507E225EE46EE67EF7F
:102E20007CE51DC007E225EE45EE69ED7CE517C0A7
:102E300006E221EE40EE64EF7CE511C007E225EEEC
:102E400044EE65EF7CE50BC006E221EE42EE66EF54
:102E50007CE505C008E221E045EE6AED7CE50E94D4
:102E6000781680E008C0FC018281882319F0109256
:102E70003A0401C081E00F910895CF93DF93EC01F4
:102E8000FB018281882309F41FC1C230FCE5DF0702
:102E900008F41BC1C6319CE5D90738F09E012B5FB1
:102EA0003C452930310508F010C10E943724909329
:102EB000900680938F06C031ECE5DE0709F4C3C0AD
:102EC00008F041C0C8308CE5D80709F49AC0F0F486
:102ED000C430ECE5DE0709F487C068F4C2308CE545
:102EE000D80709F477C0C330DC4509F0E3C080910E
:102EF0008F06826076C0C630ECE5DE0709F46EC04E
:102F000008F07BC080918F0688606BC0CC308CE568
:102F1000D80709F485C068F4CA30ECE5DE0709F487
:102F200074C008F079C00E94291E80918F068068C5
:102F300058C0CE308CE5D80709F476C008F07FC0C1
:102F400080918F068BC0CC3FECE5DE0709F44FC0C3
:102F500018F5C3318CE5D80709F47DC078F4C13188
:102F6000ECE5DE0709F473C0C231DC4509F0A2C00C
:102F70000E94291E80918F068F7733C0C5318CE562
:102F8000D80709F472C008F486C0CB3FDC4509F0CD
:102F900091C0809190063EC0C115FDE5DF0709F4A0
:102FA0005FC058F4CE3F9CE5D90709F444C008F44B
:102FB0003FC08091900682602DC0C230FDE5DF07E2
:102FC00009F475C008F45DC0C330DD4509F072C076
:102FD00080E06EC080918F06816003C080918F0673
:102FE000806180938F0666C080918F0611C08091AA
:102FF00090068260809390065DC080918F0680620B
:10300000F0CF80918F068064ECCF80918F0688602E
:103010008460E7CF8160EECF80918F068E7FE1CF15
:1030200080918F068D7FDDCF80918F06877FD9CFEE
:103030008091900618C0809190068D7FDBCF8091A3
:103040008F068F7ECECF80918F068F7DCACF8091E5
:103050008F068F7BC6CF80918F06877F8B7FC1CFF6
:10306000809190068D7F8E7FC5CF80918F0682FBE9
:10307000222720F991E0922790FB82F990FB83F9B7
:10308000B0CF80919006982F909591708E7F892B6C
:1030900090FB81F9AFCF0E94291E80918F0687FB9C
:1030A000222720F991E0922790FB87F99ACF81E0BF
:1030B0000E94CD2480918F06909190060E94482412
:1030C0000E94291E80E001C081E0DF91CF91089528
:1030D000CF93DF9386319C4541F5EB010E94782325
:1030E000982F8A812091290230912A02882379F031
:1030F0009A7A81E009F480E080933B04911102C048
:1031000069E201C065E3C9010E9468250AC0809197
:103110003B04811102C069E201C065E3C9010E945C
:1031200073250E94B92380E001C081E0DF91CF9137
:1031300008951092B9008CE08093B8000895EF9242
:10314000FF920F931F93CF93DF93182FEB011092F1
:10315000BC0084EA8093BC000E9414267C0180910C
:10316000BC0087FD0EC0CF3F8FEFD807C1F30E9490
:1031700014268E199F098C179D0788F38EEF9FEFF9
:103180002EC08091B900887F883041F08091B900CD
:10319000887F803119F08FEF9FEF21C01093BB0023
:1031A00084E88093BC000E9414268C018091BC00AE
:1031B00087FD0CC0CF3F8FEFD807C1F30E941426C4
:1031C000801B910B8C179D0788F3D8CF8091B90095
:1031D000887F883111F08034F1F680E090E0DF9153
:1031E000CF911F910F91FF90EF9008950F931F9330
:1031F000CF93DF93EB018093BB0084E88093BC0006
:103200000E9414268C018091BC0087FD0EC0CF3F28
:103210008FEFD807C1F30E941426801B910B8C17E7
:103220009D0788F38EEF9FEF0CC02091B900287F97
:1032300081E090E0283211F480E090E09195819552
:103240009109DF91CF911F910F910895CF92DF9255
:10325000EF92FF920F931F93CF93DF936B018A013D
:103260007901B9010E949F18E6010C0D1D1DC017C0
:10327000D10761F424E92093BC00DF91CF911F9125
:103280000F91FF90EF90DF90CF90089597FDF2CFD0
:10329000B70189910E94F618EACF90934104809378
:1032A00040040895E0914004F0914104309721F0EA
:1032B0000190F081E02D099480E00895E0914004B0
:1032C000F0914104309711F480E008950190F0816D
:1032D000E02D09950895E0914004F0914104309764
:1032E00099F020913502222359F020918F0627FF73
:1032F00007C0DC012C9111962C93119725E02C939B
:103300000280F381E02D09940895E0914004F0914A
:103310004104309739F022E0DC012C930480F581E0
:10332000E02D0994089520913E0430913F04281720
:10333000390771F090933F0480933E04E09140047C
:10334000F0914104309721F00680F781E02D099437
:10335000089520913C0430913D042817390771F0FD
:1033600090933D0480933C04E0914004F09141042B
:10337000309721F00084F185E02D099408950E9492
:1033800020266093510470935204809353049093C9
:10339000540460934D0470934E0480934F049093B3
:1033A0005004089585B7806885BF85B7806885BF5C
:1033B000089581E008950C94D91908950C94DD19AD
:1033C0000C94DD190C94E0190C94DD190C94E4199B
:1033D0000C94DD190E94D2198CE194E20E94A1267E
:1033E0000E94E8190C94E6190E940B260E94AD0574
:1033F0000E94BC260C94E2196F927F928F929F924A
:10340000AF92BF92CF92DF92EF92FF920F931F93F2
:10341000CF93DF93CDB7DEB72A970FB6F894DEBF10
:103420000FBECDBF0E94DE190E94DD190E94DF058C
:1034300081110E94BF1933E4832E34E0932E00E003
:1034400010E0E02E802F0E947B055C01F40161906A
:1034500071904F016826792661147104B1F40F5FF1
:103460001F4F0530110569F78FEF89838A831B820F
:103470000E9414268160782F9D838C8349815A8114
:103480006B818D810E94C11A43C08091ED0481FD42
:103490000E948405F12CCC24C394D12CC3018C212F
:1034A0009D21892B71F10E94DB19AC20BD2088235E
:1034B000A1F0FE82EF8281E0A114B10409F480E062
:1034C00088870E9414268160782F9A8789874E8189
:1034D0005F8168858A850E94C11A000F111FF8015B
:1034E000ED5BFB4F80819181C826D926D182C082B5
:1034F00041E0AB2809F440E06F2D8E2D0E94CC10E6
:1035000007C0F394CC0CDD1CFFE0FF12C7CFA7CFA0
:103510000E9480110E941F080E945219909142043B
:103520008917D1F00E945219809342042A960FB64F
:10353000F894DEBF0FBECDBFDF91CF911F910F91E9
:10354000FF90EF90DF90CF90BF90AF909F908F90C3
:103550007F906F900C9486032A960FB6F894DEBF86
:103560000FBECDBFDF91CF911F910F91FF90EF90D4
:10357000DF90CF90BF90AF909F908F907F906F9093
:103580000895DF92EF92FF920F931F93CF93DF93F3
:10359000CDB7DEB72B970FB6F894DEBF0FBECDBF09
:1035A000F42E052F162FE72ED82E61110E94982396
:1035B000FE01319686E0DF011D928A95E9F77E2DA6
:1035C0004F2D502F612F8D2D9E810E94E2202B9632
:1035D0000FB6F894DEBF0FBECDBFDF91CF911F9124
:1035E0000F91FF90EF90DF900895FC018081918111
:1035F0000E9439230895CF93882309F450C0C82F1F
:103600008CEF8C0F813AD0F46C2F8091290290912D
:103610002A020E94E824882349F06C2F8091290215
:1036200090912A020E9473250E94B9236C2F8091E9
:10363000290290912A020E9468250CC080E28C0F1A
:10364000883058F4C77081E001C0880FCA95EAF746
:103650000E947B23CF910C94B923EBE5EC0FE33070
:1036600040F4F0E0E453FC4F808190E0CF910C9463
:103670009319E8E5EC0FE73150F4F0E0EE0FFF1F8F
:10368000E256FC4F80819181CF910C94A919CD3ED7
:1036900030F08C2F0E942F07CF910C940108CF910E
:1036A0000895882389F19CEF980F913A40F4682F90
:1036B0008091290290912A020E9473250DC090E208
:1036C000980F983058F4877091E001C0990F8A954F
:1036D000EAF7892F0E9481230C94B9239BE5980F68
:1036E000933020F480E090E00C94931998E5980FC3
:1036F000973120F480E090E00C94A9198D3E20F0E1
:103700000E948A070C94010808951F93CF93DF93BA
:10371000182FEB010E94FB1A209741F08FE99FE0E0
:103720000197F1F700C000002197F6CF812FDF91BC
:10373000CF911F910C94511B893319F060E070E018
:1037400002C060E570E00C94851B882321F00E9484
:103750007B230C94B9230895882321F00E948123B0
:103760000C94B9230895CF92DF92EF92FF920F93BA
:103770001F93CF93DF937C01D62FC72FFC011281BB
:10378000058102950F700E947123882399F01123FF
:1037900089F08C2F807F803421F080E28D0F88307B
:1037A00048F082E00E9403240E94712391E0D82E09
:1037B000D92601C0D12CCC2EC2948FE0C8228C2DEA
:1037C00090E08C30910508F0B6C1FC01E058FF4F45
:1037D0000C94F82D8C2F807FCF70882311F0C29528
:1037E000C07F112399F0CC2309F491C180E28D0FA1
:1037F000883010F0D11104C08C2F0E947B2303C0AD
:103800008C2F0E948B230E94B92381C18D2F0E948F
:10381000511BCC2309F48FC180E28D0F883010F04A
:10382000D11104C08C2F0E94812303C08C2F0E94D1
:1038300091230E94B9237FC18C2F807FCF7080326B
:1038400011F0C295C07FDD2319F0D130C9F022C03C
:10385000112371F0002341F0013031F40E949E23C6
:103860008C2B0E94A62367C10E949E238C2B1DC017
:10387000002319F0013009F45EC10E94AF2325C076
:10388000112321F0063008F056C10EC0053008F0B3
:1038900052C11BC0112361F0002331F0F701858173
:1038A00080FF35C18F7085838C2F0E94A51B43C17B
:1038B000002359F0D93309F03BC1FFEF07EE13E0C5
:1038C000F15000401040E1F731C18C2F0E94AC1B39
:1038D00032C18C2F86958695837019F0813061F006
:1038E0002AC1112321F08D2F9C2F937002C080E0FC
:1038F00090E00E94931927C1112321F08D2F9C2F56
:10390000937002C080E090E00E94A9191CC18D2F25
:10391000112319F00E942F0702C00E948A070E94FB
:10392000010811C18C2F837009F047C0111107C124
:103930002D2F229526952770220F220F6D2F6F7045
:10394000862F90E0A0E0B0E0022E04C0880F991FFF
:10395000AA1FBB1F0A94D2F7D4FF10C04FE050E05B
:1039600060E070E004C0440F551F661F771F2A9562
:10397000D2F7409550956095709503C040E050E0B7
:10398000BA01C695C695C3708A019B01082B192BF5
:103990002A2B3B2BC901B801C23049F058F4C13081
:1039A00019F00E94B621CBC00E94A421C8C00E9479
:1039B000C821C5C00E94A221C2C0112319F08C2FBA
:1039C000817001C08695882309F4B9C02D2F2295F6
:1039D00026952770220F220F6D2F6F70862F90E093
:1039E000A0E0B0E0022E04C0880F991FAA1FBB1FE1
:1039F0000A94D2F7D4FF10C04FE050E060E070E0CE
:103A000004C0440F551F661F771F2A95D2F74095B3
:103A100050956095709503C040E050E0BA01C6959E
:103A2000C695C3708A019B01082B192B2A2B3B2BAF
:103A3000C901B801C23049F058F4C13019F00E94F0
:103A40007B227DC00E9469227AC00E948D2277C0AD
:103A50000E94DC2174C0CF70112339F08C2F0E949A
:103A600002228D2F0E94A51B6AC08D2F0E94AC1BC5
:103A70008C2F0E94232263C0D23F01F128F4D03F53
:103A800041F0D13FA1F03FC0D33FF9F0D43F39F12D
:103A90003AC0112341F0053008F04DC08C2F8F71D2
:103AA0000E94482248C0063008F045C0F7CF1123D5
:103AB00039F08C2F8F710E9402223DC01123C9F36F
:103AC0008C2F8F710E94232236C0112329F08C2F56
:103AD0008F710E94ED212FC00E94E8212CC011237C
:103AE00049F0CF718C2F0E94022263E08C2F0E943C
:103AF000EE2321C081E00E9403240230E0F082E046
:103B00000E94032418C0112331F0002391F28D2F5D
:103B10000E94FB1A10C0002399F2D93349F41FEF19
:103B200027EE33E0115020403040E1F700C00000A4
:103B30008D2F0E94511B88EF8C0D843020F40E9441
:103B400052190E948603DD20C9F00E946D2380FD7A
:103B500015C0F70112820E9467230E940222C7014A
:103B60000E94DF1D0E946723DF91CF911F910F916B
:103B7000FF90EF90DF90CF900C942322DF91CF91B4
:103B80001F910F91FF90EF90DF90CF9008950F93CA
:103B90001F93CF93DF93EC01688179818A810E9422
:103BA00044238C010E949F220E949021B801CE01E3
:103BB0000E94B31BDF91CF911F910F910895CF9376
:103BC000DF93EC01988189812B813C81232B31F09B
:103BD0008F3F31F481E09F3F19F403C081E001C0C1
:103BE00080E080FD19C0CE010E943C0381110CC011
:103BF0000E947123882381F08A81882369F082E002
:103C0000DF91CF910C940324CE010E94C71DCE01F9
:103C1000DF91CF910C941303DF91CF91089580E051
:103C200090E00E94931980E090E00E94A9190E9400
:103C300098230E949B230E94B9230E9432090C946E
:103C400001088091290290912A020E947E250C94FD
:103C50000F1E0E9488230C94211EE92FE295EF701D
:103C60004E2F50E0FA013297EE30F105B0F4E457F0
:103C7000FF4F0C94F82D803F91F018F4883E68F4C3
:103C80000EC0843F51F40BC0883E48F0813F29F4B8
:103C900006C093FB882780F9089580E0089581E0AD
:103CA00008950E9439230E942D1E0895CF93DF931B
:103CB00000D000D01F92CDB7DEB70F900F900F90BD
:103CC0000F900F90DF91CF910895CF93DF9300D0A5
:103CD00000D000D0CDB7DEB726960FB6F894DEBF81
:103CE0000FBECDBFDF91CF9108951F93CF93DF9388
:103CF000C091560416E080915704C81799F0D0E09F
:103D00001C9FF0011D9FF00D1124E85AFB4F4081CC
:103D1000518162817381848195810E94651E219603
:103D2000C770E9CFDF91CF911F910895409188042A
:103D30005091890460918A0470918B0480918C0465
:103D400090918D040C94651E0F931F93CF93DF9376
:103D500080918D0482958F7009F05DC080918A04F6
:103D6000882309F458C0809156041091570460913B
:103D7000880470918904C0918B04D0918C0491E0E7
:103D80006F3F09F090E0292F06E0811709F443C046
:103D9000209721F07F3F21F030E003C031E001C0E7
:103DA000322F90E030FD34C0089FF001099FF00DE4
:103DB0001124DF01A85ABB4F11963C91119737137C
:103DC00027C03C91361324C012963C9112973111B2
:103DD0001FC013964D915C9114974C1B5D0B483C92
:103DE0005105B0F480918D048F70806180938D04B3
:103DF000E35AFB4F80818F708061808388E894E074
:103E00000E94DF1DDF91CF911F910F910C94751EC1
:103E100001968770BACFDF91CF911F910F910895CE
:103E20009F92AF92BF92CF92DF92EF92FF920F9349
:103E30001F93CF93DF93CDB7DEB761970FB6F8949A
:103E4000DEBF0FBECDBF8C0185E0F801DE011D96FF
:103E500001900D928A95E1F7F80140815181E2804D
:103E6000909188046091890420918B0430918C0496
:103E70002115310531F06F3F31F481E09F3F19F496
:103E800003C081E001C080E0F82FF1709F2E80FD1B
:103E900046C1F801A380B48088E8C82E84E0D82EFB
:103EA000F0908A04F501E21BF30BFF2009F4DFC058
:103EB00080918D04E83CF10508F09BC0282F207FFD
:103EC00009F052C0561313C0491311C0FE2CE11063
:103ED0000EC08F70806180938D040E94961EC60173
:103EE0000E94DF1D80918D04F801858358C1AB28A5
:103EF00031F05F3F31F481E04F3F19F403C081E0BE
:103F000001C080E080FD03C081E08E2502C080E01A
:103F100090E0F82FF170FF2E80FF1CC080915604B6
:103F20002091570436E0821709F417C190E0389FBA
:103F3000F001399FF00D1124E85AFB4F61815613AF
:103F400006C06081461303C06281E61203C0019679
:103F50008770E9CFFE2CEE2009F421C180918D04F9
:103F6000816080938D045AC0561306C0491304C063
:103F7000E11002C0F8019FC04D875E878D859E8548
:103F80000E94511E882379F1EE2069F120918D0461
:103F9000822F82958F7090E0029774F08091880450
:103FA0009091890498878F831986BB86AA862C876F
:103FB000CE0107960E94DF1D86E0F801A8E8B4E074
:103FC00001900D928A95E1F70E94A41E0E94961E10
:103FD0000DC0561729F14D875E878D859E850E94FD
:103FE000511E81112CC0C8010E94DF1DFF24F394D3
:103FF000D6C0282F207F69F77A2DB98AA88A6E2D1E
:1040000089890E94561E88E894E00E94DF1D86E0A0
:10401000F60111928A95E9F70E94961EF12CBFC015
:104020004913D9CFE110D7CFF8018583C8010E9489
:10403000DF1D86E0F60111928A95E9F7B0C0EE2007
:1040400091F220918D04822F82958F7090E00297DB
:104050000CF4B2CF80918804909189049A8389836B
:104060001B82BD82AC822E83CE010196A3CFE83C99
:10407000F10508F047C0FE2CEE2009F4B4CF56132A
:1040800030C049132EC020918D0420FD21C0822F05
:1040900082958F70482F50E041155105C9F0F80105
:1040A00025834F30510541F08F5F982F9295907F77
:1040B000822F8F70892B8583C8010E94DF1D86E0C7
:1040C000F801A8E8B4E001900D928A95E1F742C0AA
:1040D00086E0F801A8E8B4E001900D928A95E1F736
:1040E0005EC04D875E878D859E850E94511E811121
:1040F00063CF80918D04816080938D04C8010E94FC
:10410000DF1D4DC07A2DB98AA88A6E2D89890E943B
:10411000561E86E0F60111928A95E9F71BC0EE2043
:1041200009F461CF4D875E878D859E850E94511E63
:10413000F82E882309F457CF86E0F801A8E8B4E008
:1041400001900D928A95E1F788E894E00E94F51AB3
:104150000E94A41E0E94961E22C04D875E878D85F8
:104160009E850E943923292F22952F70223028F412
:104170009F7039F0811105C00BC0243028F49F7066
:1041800049F4805E883020F0C8010E94DF1D9F2C1A
:10419000F92C05C0F8019581907F99F7F9CF8F2D03
:1041A00061960FB6F894DEBF0FBECDBFDF91CF9101
:1041B0001F910F91FF90EF90DF90CF90BF90AF9045
:1041C0009F9008951F93CF93DF93CDB7DEB72C97C1
:1041D0000FB6F894DEBF0FBECDBF4F8358876987F7
:1041E0007A878B879C87CE0107960E94101F8823B1
:1041F000D1F09F8188852A853B85232B31F08F3F25
:1042000031F481E09F3F19F403C081E001C080E0F8
:1042100080FD47C04F81588569857A858B859C854F
:104220000E94651E3EC086E0FE013796DE011196B3
:1042300001900D928A95E1F7FF81E8856A857B857B
:104240006115710531F0EF3F31F481E0FF3F19F462
:1042500003C081E001C080E080FD23C020915704AD
:1042600030E0C9010196877099274091560450E0CB
:1042700084179507F1F1F983EA837D836C8396E0D7
:10428000929FD001939FB00D1124A85ABB4FFE01FD
:10429000319601900D929A95E1F7809357040E9410
:1042A000751E16E08091560490915704891771F19C
:1042B000189FC0011124885A9B4F0E94101F882309
:1042C00029F1E09156041E9FF0011124E85AFB4F9A
:1042D0004081518162817381848195810E94651E34
:1042E0008091560490E00196877099278093560438
:1042F000D9CF0E94291E1092570410925604E8E864
:10430000F4E086E0DF011D928A95E9F72C960FB65E
:10431000F894DEBF0FBECDBFDF91CF911F910895FE
:10432000089508950C9491210C9492210E94942157
:104330006093C4047093C5048093C6049093C7042B
:104340000C940F1E0C9496210F931F930091C4049C
:104350001091C5042091C6043091C704602B712BC5
:10436000822B932B1F910F910C9496210F931F93E7
:104370000091C4041091C5042091C6043091C70473
:1043800060237123822393231F910F910C94962114
:104390000F931F930091C4041091C5042091C6048B
:1043A0003091C70460277127822793271F910F91AF
:1043B0000C9496210C9491210E94DA216093C00400
:1043C0007093C1048093C2049093C3040C940F1E95
:1043D00060E070E0CB010C94DC210F931F9341E06F
:1043E00050E060E070E08A019B0104C0000F111FE3
:1043F000221F331F8A95D2F7C901B8011F910F916F
:104400000C94DC210F931F9341E050E060E070E0DA
:1044100004C0440F551F661F771F8A95D2F78091FD
:10442000C0049091C104A091C204B091C3048A0158
:104430009B01082B192B2A2B3B2BC901B8011F917B
:104440000F910C94DC210F931F9341E050E060E04A
:1044500070E004C0440F551F661F771F8A95D2F77E
:1044600040955095609570958091C0049091C104DD
:10447000A091C204B091C3048A019B0108231923AF
:104480002A233B23C901B8011F910F910C94DC2111
:104490000F931F9341E050E060E070E004C0440FD0
:1044A000551F661F771F8A95D2F78091C00490919F
:1044B000C104A091C204B091C3048A019B010827E2
:1044C00019272A273B27C901B8011F910F910C9486
:1044D000DC210F931F930091C0041091C10420911F
:1044E000C2043091C304602B712B822B932B1F913C
:1044F0000F910C94DC210F931F930091C004109135
:10450000C1042091C2043091C3046023712382232B
:1045100093231F910F910C94DC210F931F93009113
:10452000C0041091C1042091C2043091C3046027DB
:104530007127822793271F910F910C94DC210895F6
:104540002FE0929F800D1124E82FE695E695E695E1
:10455000877051E001C0550F8A95EAF785E0E89F22
:10456000F0011124E257FB4F20E030E070E0408181
:10457000CB01022E02C0969587950A94E2F78170CE
:10458000819584278523842781932F5F3F4F253092
:10459000310569F708952FE0929F800D1124682F4F
:1045A000669566956695982F977085E0689FB0012F
:1045B000112440E050E080E0FB01E40FF51FE257DA
:1045C000FB4F208130E0092E02C0369527950A94D2
:1045D000E2F721703327042E01C0220F0A94EAF774
:1045E000822B4F5F5F4F4530510531F70895BF92E1
:1045F000CF92DF92EF92FF920F931F93CF93DF93AF
:104600008C01C090C004D090C104E090C204F0902E
:10461000C3048091C4049091C504A091C604B091D4
:10462000C704C82AD92AEA2AFB2ACFE1D0E0D70159
:10463000C6010C2E04C0B695A795979587950A9448
:10464000D2F780FD04C0219790F7B12C07C0BC2E93
:10465000B8018C2F0E94A2030197A9F38B2DDF9143
:10466000CF911F910F91FF90EF90DF90CF90BF906F
:104670000895CF93DF93EC010E94F722BE010E94C0
:10468000A203DF91CF9108951F93CF93DF93EB01A6
:1046900090915504992321F0CB010E94392313C036
:1046A000882349F0CB010E94F722182F682FCE01F2
:1046B0000E94A02204C0CB010E94CB22182FBE0171
:1046C000812F0E94A203DF91CF911F9108958091C5
:1046D000C80485958595859508958091C80487704F
:1046E00008959091C804977081E009F480E00895DE
:1046F0008091EC0408959091EC04892B8093EC0454
:10470000089580959091EC0489238093EC0408959A
:104710001092EC0408959091EB04892B8093EB04A4
:10472000089580959091EB0489238093EB0408957C
:104730001092EB0408951092EA0408958091C90440
:10474000089508950C94A1230C94A2239091C90478
:10475000981721F08093C9040C94A42308958091A4
:10476000C904882329F01092C90480E00C94A42382
:104770000895E0912902F0912A028091EC0480834F
:10478000E0912902F0912A0290818091EB04892B1B
:104790008083E0912902F0912A0290818091EA04BD
:1047A000892B80838091C904882381F0E0912902BC
:1047B000F0912A029081892B808380912902909127
:1047C0002A020E94D22481110E94AF2380912902E3
:1047D00090912A020C946B190C94A12398E0899F64
:1047E00090011124262B2093C8040E94022280915C
:1047F000C8048595859585950C94EC231092C80482
:1048000080E00C94EC232091C8048095822380934F
:10481000C804982F977079F430E0482F082E000CC8
:10482000550B2417350739F08595859585950E9498
:1048300023220C94FE23089580E008956FEF7FEF0C
:1048400080E090E00C94D12E80E090E00E949D2EBC
:1048500021E08B3E9E4F09F020E0822F089582E0F8
:1048600090E00C94952E83E090E00C94952ECF93DD
:1048700084E090E00E94952EC82F81E290E00E9493
:10488000952E2C2F30E0A901582BCA01CF91089505
:10489000CF93C92F682F84E090E00E94B32E6C2F35
:1048A00081E290E0CF910C94B32EAB01BC018FE07C
:1048B00090E00C94C52EAB01BC0183E190E00C9418
:1048C000C52E60E070E0CB010C945B2460E070E0EA
:1048D000CB010E9455240C9461246BEE7EEF80E0A6
:1048E00090E00E94D12E60E082E090E00E94B32E22
:1048F00060E083E090E00E94B32E1092C404109216
:10490000C5041092C6041092C70460E084E090E0F1
:104910000E94B32E60E081E290E00E94B32E60E03E
:1049200085E090E00E94B32E60E086E090E00E9477
:10493000B32E6FEF87E090E00E94B32E40E050E08E
:10494000BA0188E090E00E94C52E60E08DE090E022
:104950000E94B32E40E050E0BA0188E190E00E944E
:10496000C52E60E087E190E00E94B32E40E050E069
:10497000BA018CE190E00E94C52E60E080E290E0F8
:104980000E94B32E40E050E0BA0188E190E00E941E
:10499000C52E0C9466240C946D24682F8EE090E054
:1049A0000C94B32EFC01329680913502882331F0AD
:1049B00080918F0687FF02C09EE101C096E080E0F3
:1049C000915028F021912223D9F38F5FF9CF0895D8
:1049D000662351F1209135022223E9F020918F06C0
:1049E00027FF19C0462F4695469546954E31E0F46F
:1049F000677021E030E002C0220F331F6A95E2F7B2
:104A0000FC01E40FF11D828190E02823392381E02D
:104A1000232B69F409C0FC01329608962191621794
:104A200029F0E817F907D1F780E0089581E00895AB
:104A30009C01FC0132969FEF80E04191461789F07E
:104A40009F3F19F4411101C0982F8F5F8630A9F75D
:104A50009F3F39F0F901E90FF11D97FDFA95628347
:104A6000089508959C012A5F3F4FFC01428146133F
:104A700001C01282019682179307B9F70895262F75
:104A80002695269526952E3168F4FC01E20FF11D3E
:104A9000677021E030E001C0220F6A95EAF7828159
:104AA000282B22830895262F2695269526952E318C
:104AB00070F4FC01E20FF11D677021E030E001C0ED
:104AC000220F6A95EAF72095828128232283089590
:104AD00020913502222329F020918F0627FD0C9486
:104AE0003F250C94182520913502222329F020918E
:104AF0008F0627FD0C9453250C9432252091350206
:104B0000FC013296222331F080918F0687FF02C08C
:104B10008EE101C086E0DF011D928A95E9F70895D4
:104B200008950C9490250C949025CF930E94932582
:104B30000E94DF050E949125C0E08C2F0E947B051A
:104B4000892B29F4CF5FC530C1F780E001C081E037
:104B5000CF9108950C94902580919506843049F169
:104B60000E94B80280E00E9486031092EE0420E4C6
:104B700088E190E00FB6F894A895809360000FBE8E
:104B80002093600083B7817F846083BF83B7816097
:104B900083BF7894889583B78E7F83BF0FB6F894D0
:104BA000A8958091600088618093600010926000F9
:104BB0000FBE08950E94291E0E9452190E9486036A
:104BC0000C94BD021F920F920FB60F9211248F9377
:104BD0009F93AF93BF938091EE04811113C0809196
:104BE0008B0690918C06A0918D06B0918E06419611
:104BF000A11DB11D80938B0690938C06A0938D060A
:104C0000B0938E06BF91AF919F918F910F900FBE81
:104C10000F901F90189582E084BD93E095BD9AEFA8
:104C200097BD80936E0008952FB7F89480918B06FE
:104C300090918C06A0918D06B0918E062FBF08959D
:104C40002FB7F89460918B0670918C0680918D0639
:104C500090918E062FBF08959C014FB7F8948091D4
:104C60008B0690918C06A0918D06B0918E064FBF59
:104C7000821B930B0895CF92DF92EF92FF922FB792
:104C8000F894C0908B06D0908C06E0908D06F09042
:104C90008E062FBFA7019601261B370B480B590B19
:104CA000CA01B901FF90EF90DF90CF9008957894FA
:104CB0001F920F920FB60F9211248F939F93AF9371
:104CC000BF9380918B0690918C06A0918D06B09138
:104CD0008E060196A11DB11D80938B0690938C06C4
:104CE000A0938D06B0938E06BF91AF919F918F9147
:104CF0000F900FBE0F901F90189581E08093E000F9
:104D000080E28093D8001092C9008FE19EE4019761
:104D1000F1F700C0000087E090EBDC0180939E0675
:104D200090939F06A093A006B093A1069CE088E113
:104D30000FB6F894A895809360000FBE9093600022
:104D4000FFCF9093D1038093D00308950C941E2439
:104D50000E94DF058FEB9DE50197F1F700C0000091
:104D60000E94DF0580E00E947B0580FF04C00E9456
:104D7000A6260C947D2608950E942424811102C049
:104D80000E94CB240E942F248093ED040E9437249C
:104D90009093900680938F060E943324682F70E0D2
:104DA00080E090E00E94A2216091C0047091C10453
:104DB0008091C2049091C3040C94DA2180910F0574
:104DC0000895CF93DF9300D01F92CDB7DEB79091B7
:104DD0009506943019F589837B836A8382E08093FA
:104DE000E9008FEF9091E800815095FD06C095EDA8
:104DF0009A95F1F700008111F5CF8091E80085FFC9
:104E00000DC040E050E063E070E0CE0101960E94EA
:104E100013298091E8008E778093E8000F900F901F
:104E20000F90DF91CF910895BC0184E00C94E126AE
:104E3000BC0183E00C94E12622E02093E9002FEFEF
:104E40003091E800215035FD06C035ED3A95F1F777
:104E500000002111F5CF2091E80025FF0BC040E0B4
:104E600050E066E070E00E9413298091E8008E77A0
:104E70008093E8000895CF93DF9320913502222399
:104E800039F020918F0627FF03C060E222E002C0C4
:104E900068E021E02093E9002FEF3091E8002150F5
:104EA00035FD06C035ED3A95F1F700002111F5CF3B
:104EB0002091E80025FF1DC0EC0180913502811191
:104EC00005C040E050E068E070E003C070E040E002
:104ED00050E0CE010E9413298091E8008E778093E4
:104EE000E80080E2FE01AFEEB4E001900D928A95F9
:104EF000E1F7DF91CF91089580919406811109C067
:104F00000E94A42A0E94012B8091E2008460809379
:104F1000E200089510929406089508950895089562
:104F200042E061EC81E00E941D2A42E261EC82E0F5
:104F30000C941D2A80919706833009F460C030F4E8
:104F4000813071F0823009F499C008958A3009F4F3
:104F500085C08B3009F46BC0893009F0A7C020C030
:104F600080919606813A09F0A1C08091E800877F80
:104F70008093E80080919A0690919B06892B21F4FA
:104F800060E28FEE94E003C060E080E090E070E0CB
:104F90000E945E298091E8008B778093E800089555
:104FA00080919606813209F081C080919A06909195
:104FB0009B06029708F07AC08091E800877F809373
:104FC000E8008091E80082FD05C08091950681117E
:104FD000F8CF6CC02091F3008091F20090E0922B0A
:104FE000029729F48091F1008B7F813021F4809128
:104FF000F10080930F058091E8008B7753C080917A
:105000009606813A09F052C080919A0690919B06CB
:10501000892B09F04BC08091E800877F8093E800DE
:105020008091E80080FFFCCF8091350236C08091EE
:1050300096068132D9F580919A0690919B06892B2C
:10504000A9F58091E800877F8093E8000E94522AAA
:1050500080919806809335020C94291E80919606C3
:10506000813221F58091E800877F8093E8000E94DB
:10507000522A809199068093100508958091960692
:10508000813AA1F48091E800877F8093E8008091C5
:10509000E80080FFFCCF809110058093F1008091A3
:1050A000E8008E778093E8000C94522A089584B724
:1050B000877F84BF0FB6F894A895809160008861BF
:1050C00080936000109260000FBE90E080E80FB601
:1050D000F89480936100909361000FBE0E94EA19DA
:1050E0000E94A42A0E94012B8091E2008460809398
:1050F000E20078940E94962D0E94F4198BE292E0CF
:105100000E944D19809195068530A9F480919506ED
:10511000853079F40E94AC25809193068823B1F301
:105120000E949525882391F30E94FD280E94291E44
:10513000EDCF0E94DA250E94FC190E94DE190E9420
:10514000DD19E0CF0C94A428292F33272330310513
:10515000C9F060F42130310581F02230310509F0C9
:1051600044C08BE390E02AE933E043C021323105AB
:10517000E1F02232310549F138C082E190E025EDBD
:1051800033E037C099278130910549F028F0029724
:1051900061F5E4E7F3E005C0E6E9F3E002C0E6E824
:1051A000F3E0849190E09F0124C06115710541F006
:1051B00061307105D1F489E090E025EC33E019C04D
:1051C00089E090E02CEA33E014C06115710541F0EC
:1051D0006130710551F486EB90E027EE33E009C0B1
:1051E00080E490E02DE934E004C080E090E020E02D
:1051F00030E0FA0131832083089580E189BD82E1A6
:1052000089BD09B400FEFDCF8091D8008F7D8093C9
:10521000D8008091E00082608093E0008091E000FF
:1052200081FDFCCF0895CF92DF92EF92FF920F9312
:105230001F93CF93DF93EC018B017A010E94712AB7
:10524000811133C0E114F10439F0F70180819181BB
:10525000081B190BC80FD91FC12CD12C0115110522
:1052600019F18091E80085FD16C08091E8008E77E5
:105270008093E800E114F10449F0F7018081918105
:10528000C80ED91ED182C08285E00FC00E94712A4B
:10529000882321F30AC089918093F10001501109FC
:1052A000FFEFCF1ADF0ADACF80E0DF91CF911F91B5
:1052B0000F91FF90EF90DF90CF90089520919C0682
:1052C00030919D062617370748F06115710539F4AE
:1052D0002091E8002E772093E80001C0B901FC017D
:1052E00020E06115710579F1809195068823F1F12F
:1052F0008530F1F18091E80083FD3CC08091E800A9
:1053000082FD2EC08091E80080FFEBCF2091F3005A
:105310008091F20090E0922B6115710551F0883078
:10532000910538F421912093F100615071090196A3
:10533000F3CF21E0089709F020E08091E8008E7714
:105340008093E800CECF2111CFCF0AC0809195067F
:10535000882361F0853061F08091E80083FD0AC008
:105360008091E80082FFF2CF80E0089582E0089506
:1053700083E0089581E0089520919C0630919D0678
:105380002617370748F06115710539F42091E800B8
:105390002E772093E80001C0B901FC0120E06115DF
:1053A000710591F180919506882309F440C08530FC
:1053B00009F43FC08091E80083FD3DC08091E80082
:1053C00082FD2FC08091E80080FFE9CF2091F3009B
:1053D0008091F20090E0922B6115710559F08830B0
:1053E000910540F424912093F100319661507109A8
:1053F0000196F2CF21E0089709F020E08091E800C3
:105400008E778093E800CBCF2111CCCF0AC080915A
:105410009506882361F0853061F08091E80083FD76
:105420000AC08091E80082FFF2CF80E0089582E018
:10543000089583E0089581E00895982F973068F5E6
:105440009093E900981739F07091EC002091ED00ED
:105450005091F00003C0242F762F50E021FD02C0B0
:105460009F5FECCF3091EB003E7F3093EB003091AB
:10547000ED003D7F3093ED003091EB0031603093D3
:10548000EB007093EC002093ED005093F00020911E
:10549000EE0027FDE5CF80E008958F708093E9004E
:1054A00081E008958091960687FF11C08091E80001
:1054B00082FD05C0809195068111F8CF11C08091C1
:1054C000E8008B770BC080919506882349F0809186
:1054D000E80080FFF8CF8091E8008E778093E800A5
:1054E00008952091E4003091E50095E64091EC00AC
:1054F000842F817040FF23C08091E80080FD1DC093
:1055000080919506882399F0853099F08091EB0081
:1055100085FD11C04091E4005091E5002417350746
:1055200029F3915011F09A01E1CF84E0089582E0CF
:10553000089583E0089581E0089580E00895409102
:10554000E80042FFDDCF08950E94122B0E941A2B23
:10555000E0EEF0E0808181608083E8EDF0E0808122
:105560008F77808319BCA7EDB0E08C918E7F8C93F0
:1055700080818F7E80831092940608950F931F93ED
:10558000CF93DF930E94122B0E941A2BC8EDD0E01C
:1055900088818F77888388818068888388818F7DE0
:1055A000888319BC1092950610929106109293066A
:1055B0001092920600EE10E0F80180818B7F8083CC
:1055C00088818160888342E060E080E00E941D2A3B
:1055D000E1EEF0E080818E7F8083E2EEF0E080817A
:1055E00081608083808188608083F80180818E7FE4
:1055F0008083888180618883DF91CF911F910F9193
:105600000895E8EDF0E080818F7E8083E7EDF0E0A3
:1056100080818160808384E082BF81E080939406F2
:105620000C94BE2AE8EDF0E080818E7F808310929A
:10563000E20008951092DA001092E10008951F929E
:105640000F920FB60F9211242F933F934F935F93B6
:105650006F937F938F939F93AF93BF93EF93FF933A
:105660008091E10082FF0BC08091E20082FF07C0C1
:105670008091E1008B7F8093E1000E94952D8091C5
:10568000DA0080FF1FC08091D80080FF1BC080918E
:10569000DA008E7F8093DA008091D90080FF0DC000
:1056A00080E189BD82E189BD09B400FEFDCF81E0C2
:1056B000809395060E947C2705C019BC1092950620
:1056C0000E948A278091E10080FF19C08091E2004A
:1056D00080FF15C08091E2008E7F8093E200809170
:1056E000E20080618093E2008091D8008062809324
:1056F000D80019BC85E0809395060E948E27809182
:10570000E10084FF30C08091E20084FF2CC080E182
:1057100089BD82E189BD09B400FEFDCF8091D8002A
:105720008F7D8093D8008091E1008F7E8093E1008F
:105730008091E2008F7E8093E2008091E2008160A0
:105740008093E20080919106882311F084E007C0E5
:105750008091E30087FD02C081E001C083E0809377
:1057600095060E948F278091E10083FF29C08091D8
:10577000E20083FF25C08091E100877F8093E100F4
:1057800082E080939506109291068091E1008E7FD1
:105790008093E1008091E2008E7F8093E20080910F
:1057A000E20080618093E20042E060E080E00E94DD
:1057B0001D2A8091F00088608093F0000E948D2760
:1057C000FF91EF91BF91AF919F918F917F916F91D9
:1057D0005F914F913F912F910F900FBE0F901F90AF
:1057E00018951F920F920FB60F9211242F933F938B
:1057F0004F935F936F937F938F939F93AF93BF93D9
:10580000CF93DF93EF93FF93C091E900CF70809126
:10581000EC00D82FD17080FDD0E81092E900809183
:10582000F000877F8093F00078940E94352C1092CE
:10583000E9008091F00088608093F000CD2BCF705C
:10584000C093E900FF91EF91DF91CF91BF91AF91AC
:105850009F918F917F916F915F914F913F912F9188
:105860000F900FBE0F901F9018951F93CF93DF934B
:10587000CDB7DEB7AA970FB6F894DEBF0FBECDBF87
:10588000E6E9F6E08091F100819326E0EE39F20737
:10589000C9F70E949A278091E80083FF2EC180916A
:1058A000960690919706492F50E04A30510508F02E
:1058B00024C1FA01E656FF4F0C94F82D803821F0F0
:1058C000823809F01AC108C080919206909193061F
:1058D000992389F082600FC080919A068F7087307B
:1058E00008F00BC18093E9008091EB0085FB8827CD
:1058F00080F91092E9009091E800977F9093E8007A
:105900008093F1001092F100D1C0282F2D7F09F073
:10591000F4C0882319F0823061F0EFC080919806BE
:10592000813009F0EAC0933009F080E0809393065B
:105930002EC08091980681112AC080919A068F709E
:105940002FEF280F263008F0D8C08093E90020916F
:10595000EB0020FF1CC0933021F48091EB008062AB
:1059600014C09091EB0090619093EB0021E030E047
:10597000A90102C0440F551F8A95E2F74093EA003F
:105980001092EA008091EB0088608093EB00109207
:10599000E9008091E800877F8093E8000E94522A06
:1059A000ACC08111AAC0109198061F778091E300C6
:1059B0008078812B8093E3008091E800877F80933B
:1059C000E8000E94522A8091E80080FFFCCF80917D
:1059D000E30080688093E300111102C082E001C0FF
:1059E00083E08093950689C08058823008F085C096
:1059F00080919806909199068C3D53E0950779F532
:105A000083E08A838AE289834FB7F894DE01139694
:105A100020E03EE051E2E32FF0E050935700E491A4
:105A200020FF03C0E295EF703F5FEF708E2F90E094
:105A3000EA3010F0C79601C0C0968D939D932F5FFA
:105A4000243149F74FBF8091E800877F8093E800B9
:105A50006AE270E0CE0101960E945E2916C0609154
:105A60009A0670919B06AE014F5F5F4F0E94A2287D
:105A7000BC01892B09F441C09091E800977F909375
:105A8000E80089819A810E94BC298091E8008B7787
:105A90008093E80032C0803881F58091E800877FEC
:105AA0008093E800809191068093F1008091E80056
:105AB0008E7772CF811121C08091980690919906BE
:105AC00099270297D4F48091E800877F8093E800BB
:105AD00080919806809391060E94522A80919106A7
